:020000040000FA
:100000000C946B000C9493000C9493000C9493004C
:100010000C9493000C9493000C9493000C94930014
:100020000C9493000C9493000C9493000C94930004
:100030000C9493000C9493000C9493000C949300F4
:100040000C9474030C9493000C94E4030C94BE037E
:100050000C9493000C9493000C9493000C949300D4
:100060000C9493000C949300312E312E30202D20CF
:10007000444854537461626C650000000000250020
:1000800028002B0000000000240027002A000000A8
:1000900000002300260029000404040404040404CE
:1000A0000202020202020303030303030102040823
:1000B00010204080010204081020010204081020D2
:1000C0000000000800020100000304070000000017
:1000D00000000000160411241FBECFEFD8E0DEBFE1
:1000E000CDBF11E0A0E0B1E0EEE9F1E102C0059082
:1000F0000D92A83EB107D9F722E0A8EEB1E001C009
:100100001D92AC39B207E1F710E0CBE6D0E004C0B5
:100110002197FE010E94C708CA36D107C9F70E947D
:100120004E040C94CD080C940000833081F028F428
:10013000813099F08230A9F008958730A9F0883095
:10014000C9F08430B1F4809180008F7D03C080912C
:1001500080008F7780938000089584B58F7784BD69
:10016000089584B58F7DFBCF8091B0008F77809309
:10017000B00008958091B0008F7DF9CFCF93DF93C9
:10018000E7ECF0E08491E3EBF0E0D491EFE9F0E00C
:10019000C491CC23A1F081110E949500EC2FF0E0D6
:1001A000EE0FFF1FE257FF4FA591B491EC91ED23A5
:1001B00081E090E009F480E0DF91CF91089580E044
:1001C00090E0FACF3FB7F8948091ED019091EE0165
:1001D000A091EF01B091F00126B5A89B05C02F3F7B
:1001E00019F00196A11DB11D3FBFBA2FA92F982F5D
:1001F0008827BC01CD01620F711D811D911D42E058
:10020000660F771F881F991F4A95D1F708958F921F
:100210009F92AF92BF92CF92DF92EF92FF926B01CB
:100220007C010E94E2004B015C01C114D104E10495
:10023000F104B9F00E94E200681979098A099B0962
:10024000683E73408105910580F321E0C21AD10810
:10025000E108F10888EE880E83E0981EA11CB11C0D
:10026000E4CFFF90EF90DF90CF90BF90AF909F9042
:100270008F900895AF92BF92CF92DF92EF92FF924C
:100280000F931F93CF93DF936C017B018B01040FBE
:10029000151FEB015E01AE18BF08C017D10759F05A
:1002A0006991D601ED91FC910190F081E02DC6019C
:1002B0000995892B79F7C501DF91CF911F910F9196
:1002C000FF90EF90DF90CF90BF90AF900895FC012A
:1002D000538D448D252F30E0842F90E0821B930BAB
:1002E000541710F0CF96089501970895FC01918D51
:1002F000828D981761F0A28DAE0FBF2FB11D5D9654
:100300008C91928D9F5F9F73928F90E008958FEFF5
:100310009FEF0895FC01918D828D981731F0828DA9
:10032000E80FF11D858D90E008958FEF9FEF089500
:10033000FC01918D228D892F90E0805C9F4F821B64
:1003400091098F739927089581EF91E00E94980198
:1003500021E0892B09F420E0822F089580E090E0CD
:10036000892B29F00E94A40181110C9400000895AA
:10037000FC01A48DA80FB92FB11DA35ABF4F2C911A
:10038000848D90E001968F739927848FA689B78911
:100390002C93A089B1898C91837080648C93938D08
:1003A000848D981306C00288F389E02D80818F7DAB
:1003B00080830895EF92FF920F931F93CF93DF9363
:1003C000EC0181E0888F9B8D8C8D98131AC0E88991
:1003D000F989808185FF15C09FB7F894EE89FF8960
:1003E0006083E889F98980818370806480839FBFFE
:1003F00081E090E0DF91CF911F910F91FF90EF90FE
:100400000895F62E0B8D10E00F5F1F4F0F7311270D
:10041000E02E8C8D8E110CC00FB607FCFACFE88948
:10042000F989808185FFF5CFCE010E94B801F1CF17
:10043000EB8DEC0FFD2FF11DE35AFF4FF0829FB7BC
:10044000F8940B8FEA89FB8980818062CFCFCF93AC
:10045000DF93EC01888D8823B9F0AA89BB89E889EC
:10046000F9898C9185FD03C0808186FD0DC00FB692
:1004700007FCF7CF8C9185FFF2CF808185FFEDCF10
:10048000CE010E94B801E9CFDF91CF910895FC0120
:1004900001900020E9F73197AF01481B590BBC01CF
:1004A00081EF91E00C943A018F929F92AF92BF92AC
:1004B0000F931F93CF93DF93CDB7DEB7A1970FB6FE
:1004C000F894DEBF0FBECDBF19A2423008F44AE057
:1004D0008E010F5D1F4F842E912CB12CA12CA501F4
:1004E00094010E946906E62FB901CA01EA30F4F4CA
:1004F000E05DD801EE938D01232B242B252B79F77A
:1005000090E080E0109719F0CD010E944702A1967B
:100510000FB6F894DEBF0FBECDBFDF91CF911F9114
:100520000F91BF90AF909F908F900895E95CE1CFBD
:100530004F925F926F927F928F929F92AF92BF92F3
:10054000CF92DF92EF92FF920F931F93CF936B01A5
:100550007C01742EAC019B010E94C208882399F093
:1005600082E191E0CF911F910F91FF90EF90DF908A
:10057000CF90BF90AF909F908F907F906F905F9043
:100580004F900C94470246015701E894B7F82FEFBB
:100590003FEF4FE75FE7C501B4010E94C208811138
:1005A0000DC02FEF3FEF4FE75FE7C501B4010E9499
:1005B000F80618161CF486E191E0D4CF2FEF3FEF38
:1005C0004FE75FE4C701B6010E94500818161CF4FB
:1005D0008AE191E0C7CF2FEF3FEF4FE75FECC70114
:1005E000B6010E94F80687FDF3CF20E030E0A901B4
:1005F000C701B6010E94F80610E000E087FF0AC0BC
:100600006DE281EF91E00E94DA018C01F7FAF0943B
:10061000F7F8F094C0E060E070E080E09FE37C16C3
:1006200041F020E030E040E251E40E94FD06CF5F5F
:10063000F6CFA70196010E948C062B013C010E9477
:100640006F074B015C014AE00E9454027C01E00EFE
:10065000F11ECC23C1F1C501B4010E949E079B018C
:10066000AC01C301B2010E948B064B015C016EE23A
:1006700081EF91E00E94DA01E80EF91EC15018F1F5
:1006800020E030E040E251E4C501B4010E94550889
:100690002B013C010E946F074B01B12CA12C4AE0B9
:1006A000C501B4010E945402E80EF91EC501B4014F
:1006B0000E949E079B01AC01C301B2010E948B0600
:1006C0004B015C01DBCFC701CF911F910F91FF90D0
:1006D000EF90DF90CF90BF90AF909F908F907F90E2
:1006E0006F905F904F9008951F920F920FB60F92E8
:1006F00011242F933F938F939F93AF93BF93809138
:10070000E9019091EA01A091EB01B091EC013091E7
:10071000E80123E0230F2D3758F50196A11DB11DE7
:100720002093E8018093E9019093EA01A093EB0103
:10073000B093EC018091ED019091EE01A091EF0159
:10074000B091F0010196A11DB11D8093ED01909330
:10075000EE01A093EF01B093F001BF91AF919F9193
:100760008F913F912F910F900FBE0F901F90189572
:1007700026E8230F0296A11DB11DD2CF1F920F9222
:100780000FB60F9211242F933F934F935F936F9364
:100790007F938F939F93AF93BF93EF93FF9381EFDB
:1007A00091E00E94B801FF91EF91BF91AF919F91AD
:1007B0008F917F916F915F914F913F912F910F900A
:1007C0000FBE0F901F9018951F920F920FB60F92A9
:1007D00011242F938F939F93EF93FF93E091010246
:1007E000F09102028081E0910702F091080282FDFF
:1007F0001BC0908180910A028F5F8F7320910B0242
:10080000821741F0E0910A02F0E0EF50FE4F958F21
:1008100080930A02FF91EF919F918F912F910F90FA
:100820000FBE0F901F9018958081F4CFE1EFF1E09B
:100830001382128288EE93E0A0E0B0E08483958377
:10084000A683B78384E091E09183808385EC90E078
:100850009587848784EC90E09787868780EC90E08A
:10086000918B808B81EC90E0938B828B82EC90E07B
:10087000958B848B86EC90E0978B868B118E128EF5
:10088000138E148EEEE8F2E015821286138614861B
:10089000158616821782108611860895789484B57D
:1008A000826084BD84B5816084BD85B5826085BD6C
:1008B00085B5816085BD80916E00816080936E00FA
:1008C00010928100809181008260809381008091EC
:1008D000810081608093810080918000816080939D
:1008E00080008091B10084608093B1008091B0005D
:1008F00081608093B00080917A00846080937A0058
:1009000080917A00826080937A0080917A00816081
:1009100080937A0080917A00806880937A001092A8
:10092000C100E0910102F091020282E08083E09137
:10093000FD01F091FE011082E091FF01F0910002B3
:100940008FEC808310920902E0910502F09106027B
:1009500086E08083E0910302F0910402808180614F
:100960008083E0910302F09104028081886080839B
:10097000E0910302F0910402808180688083E0911D
:100980000302F091040280818F7D80838EE191E0EB
:100990000E94470286E791E00E94470289E791E0C2
:1009A0000E944702C8E6D0E0FE016491662339F058
:1009B00081EF91E00E94DA012196892BA9F786E761
:1009C00091E00E94470286E791E00E9447028BE88F
:1009D00091E00E94470286E791E00E94470203EB04
:1009E00010E06FE9E62E60E0F62E412C70EC572EF9
:1009F00079E7672E74EC772E87EB91E00E9447022F
:100A000080919302882309F0F89410928E0210923C
:100A10008F02109290021092910210929202F801AD
:100A20002491F7018491882399F090E0880F991F11
:100A3000FC01EC57FF4FA591B491FC01E658FF4F24
:100A4000859194918FB7F8949C91292B2C938FBF0B
:100A5000E7ECF0E08491F801C491F701D491DD2333
:100A600091F081110E949500ED2FF0E0EE0FFF1F35
:100A7000E658FF4FA591B4918FB7F8949C91C0951B
:100A8000C923CC938FBF62E170E080E090E00E94C8
:100A90000701F8012491F70184918823B9F090E0CF
:100AA000880F991FFC01EC57FF4FC591D491FC01B1
:100AB000E658FF4FA591B4919FB7F894888120958F
:100AC000822388838C9128232C939FBF8BE990E00D
:100AD0000197F1F7C0E9D1E00E94BE00892B11F522
:100AE0002197D1F78EEF9FEF20919302222309F0F7
:100AF0007894009709F45DC0409294025092950258
:100B000060929602709297024092980250929902D7
:100B100060929A0270929B02019609F4D7C086ED0A
:100B200091E09FC0C0E9D1E00E94BE00019719F496
:100B30002197D1F7D7CF28E2322EC0E8D0E090E954
:100B4000C92EDD24D3940E94BE00892B29F4F1E044
:100B5000CF1AD108C1F7C6CF0E94E2004B015C0159
:100B600080E9C82EDD24D3940E94BE00019729F4A9
:100B700021E0C21AD108C1F7B5CF0E94E20068197E
:100B800079098A099B09693271058105910538F057
:100B9000ED2FF0E0E257FD4F80818C2B8083C695CE
:100BA00011F4DF5FC0E83A943110C9CF90E080E0E3
:100BB0009BCFC0918E02D0908F026D2D70E090E09F
:100BC00080E00E94A0072DEC3CEC4CEC5DE30E9421
:100BD00055084B015C016C2F70E090E080E00E94B2
:100BE000A0079B01AC01C501B4010E948C06609373
:100BF0009402709395028093960290939702D091FD
:100C00009002C09091026D2F6F7770E090E080E0CD
:100C10000E94A0074B015C016C2D70E090E080E029
:100C20000E94A0072DEC3CEC4CEC5DE30E945508C3
:100C30009B01AC01C501B4010E948C06D7FD44C0E4
:100C4000609398027093990280939A0290939B020A
:100C5000CD0DDC0FCD0E80919202C81237C080EC12
:100C600091E00E94470260919402709195028091F8
:100C700096029091970241E00E94980282EC91E0E6
:100C80000E944702609198027091990280919A02A5
:100C900090919B0241E00E94980286E791E00E94B9
:100CA000470260ED77E080E090E00E94070180E07D
:100CB00090E0892B09F4A0CE0E94A401882309F4B6
:100CC0009BCE0E94000098CE9058BACF85EC91E060
:100CD000C8CFA1E21A2EAA1BBB1BFD010DC0AA1F83
:100CE000BB1FEE1FFF1FA217B307E407F50720F095
:100CF000A21BB30BE40BF50B661F771F881F991F10
:100D00001A9469F760957095809590959B01AC0158
:100D1000BD01CF0108955058BB27AA270E94A30602
:100D20000C9416080E94080838F00E940F0820F062
:100D300039F49F3F19F426F40C9405080EF4E0955D
:100D4000E7FB0C94FF07E92F0E94270858F3BA1716
:100D5000620773078407950720F079F4A6F50C94D1
:100D600049080EF4E0950B2EBA2FA02D0B01B90106
:100D700090010C01CA01A0011124FF27591B99F011
:100D8000593F50F4503E68F11A16F040A22F232F1D
:100D9000342F4427585FF3CF469537952795A7956D
:100DA000F0405395C9F77EF41F16BA0B620B730B14
:100DB000840BBAF09150A1F0FF0FBB1F661F771F85
:100DC000881FC2F70EC0BA0F621F731F841F48F43A
:100DD000879577956795B795F7959E3F08F0B0CFC3
:100DE0009395880F08F09927EE0F979587950895AA
:100DF0000E94DB0708F481E008950E9411070C941B
:100E000016080E940F0858F00E94080840F029F4C4
:100E10005F3F29F00C94FF0751110C944A080C9481
:100E200005080E94270868F39923B1F3552391F32D
:100E3000951B550BBB27AA2762177307840738F049
:100E40009F5F5F4F220F331F441FAA1FA9F335D0A6
:100E50000E2E3AF0E0E832D091505040E695001C5A
:100E6000CAF72BD0FE2F29D0660F771F881FBB1F14
:100E7000261737074807AB07B0E809F0BB0B802DF2
:100E8000BF01FF2793585F4F3AF09E3F510578F01E
:100E90000C94FF070C944A085F3FE4F3983ED4F3A8
:100EA000869577956795B795F7959F5FC9F7880FF2
:100EB000911D9695879597F90895E1E0660F771F44
:100EC000881FBB1F621773078407BA0720F0621BD5
:100ED000730B840BBA0BEE1F88F7E09508950E9400
:100EE0002F0888F09F5798F0B92F9927B751B0F085
:100EF000E1F0660F771F881F991F1AF0BA95C9F79E
:100F000014C0B13091F00E944908B1E008950C94EA
:100F10004908672F782F8827B85F39F0B93FCCF39D
:100F2000869577956795B395D9F73EF4909580951A
:100F3000709561957F4F8F4F9F4F0895E89409C03A
:100F400097FB3EF490958095709561957F4F8F4FFC
:100F50009F4F9923A9F0F92F96E9BB279395F69512
:100F6000879577956795B795F111F8CFFAF4BB0F90
:100F700011F460FF1BC06F5F7F4F8F4F9F4F16C0F4
:100F8000882311F096E911C0772321F09EE8872F7E
:100F9000762F05C0662371F096E8862F70E060E03A
:100FA0002AF09A95660F771F881FDAF7880F9695B3
:100FB000879597F90895990F0008550FAA0BE0E857
:100FC000FEEF16161706E807F907C0F0121613060B
:100FD000E407F50798F0621B730B840B950B39F44B
:100FE0000A2661F0232B242B252B21F408950A26B1
:100FF00009F4A140A6958FEF811D811D089597F9F1
:101000009F6780E870E060E008959FEF80EC0895AE
:1010100000240A94161617061806090608950024D7
:101020000A9412161306140605060895092E039451
:10103000000C11F4882352F0BB0F40F4BF2B11F4C5
:1010400060FF04C06F5F7F4F8F4F9F4F089557FD24
:101050009058440F551F59F05F3F71F04795880F26
:1010600097FB991F61F09F3F79F0879508951216BD
:1010700013061406551FF2CF4695F1DF08C0161669
:1010800017061806991FF1CF86957105610508941A
:101090000895E894BB2766277727CB0197F9089531
:1010A0000E94DB0708F48FEF08950E9468080C94F3
:1010B00016080E94080838F00E940F0820F09523B7
:1010C00011F00C94FF070C94050811240C944A08A5
:1010D0000E94270870F3959FC1F3950F50E0551FAC
:1010E000629FF001729FBB27F00DB11D639FAA277D
:1010F000F00DB11DAA1F649F6627B00DA11D661FCC
:10110000829F2227B00DA11D621F739FB00DA11DEC
:10111000621F839FA00D611D221F749F3327A00DA6
:10112000611D231F849F600D211D822F762F6A2F42
:1011300011249F5750409AF0F1F088234AF0EE0FA7
:10114000FF1FBB1F661F771F881F91505040A9F7D4
:101150009E3F510580F00C94FF070C944A085F3FB6
:10116000E4F3983ED4F3869577956795B795F79510
:10117000E7959F5FC1F7FE2B880F911D9695879588
:1011800097F908950E94DB07880B990B0895EE0FDD
:10119000FF1F0590F491E02D0994F894FFCF000013
:1011A0000000DA013A0167012702980176018A01FD
:1011B0006E616E00696E66006F766600433A5C553C
:1011C000736572735C73616D75655C446F63756D97
:1011D000656E74735C47697468756250726F6A6596
:1011E0006374735C506C616E7469666965725C6689
:1011F00041726475696E6F5C70506C616E74696683
:101200006965725C70506C616E7469666965722E96
:10121000696E6F000D0A004C4942524152592056E6
:10122000455253494F4E3A2000547970652C09734A
:1012300074617475732C0948756D696469747920DB
:101240002825292C0954656D706572617475726565
:10125000202843290044485431312C2009004F4BA9
:101260002C0900436865636B73756D206572726F3E
:10127000722C090054696D65206F75742065727257
:061280006F722C09000052
:107E0000112484B714BE81FFF0D085E080938100F7
:107E100082E08093C00088E18093C10086E0809377
:107E2000C20080E18093C4008EE0C9D0259A86E02C
:107E300020E33CEF91E0309385002093840096BBD3
:107E4000B09BFECF1D9AA8958150A9F7CC24DD24C4
:107E500088248394B5E0AB2EA1E19A2EF3E0BF2EE7
:107E6000A2D0813461F49FD0082FAFD0023811F036
:107E7000013811F484E001C083E08DD089C08234E0
:107E800011F484E103C0853419F485E0A6D080C0E4
:107E9000853579F488D0E82EFF2485D0082F10E0AE
:107EA000102F00270E291F29000F111F8ED06801E7
:107EB0006FC0863521F484E090D080E0DECF843638
:107EC00009F040C070D06FD0082F6DD080E0C81688
:107ED00080E7D80618F4F601B7BEE895C0E0D1E017
:107EE00062D089930C17E1F7F0E0CF16F0E7DF06D8
:107EF00018F0F601B7BEE89568D007B600FCFDCFD4
:107F0000A601A0E0B1E02C9130E011968C91119780
:107F100090E0982F8827822B932B1296FA010C0160
:107F200087BEE89511244E5F5F4FF1E0A038BF0790
:107F300051F7F601A7BEE89507B600FCFDCF97BE46
:107F4000E89526C08437B1F42ED02DD0F82E2BD052
:107F50003CD0F601EF2C8F010F5F1F4F84911BD097
:107F6000EA94F801C1F70894C11CD11CFA94CF0C13
:107F7000D11C0EC0853739F428D08EE10CD085E9AC
:107F80000AD08FE07ACF813511F488E018D01DD067
:107F900080E101D065CF982F8091C00085FFFCCF94
:107FA0009093C60008958091C00087FFFCCF809118
:107FB000C00084FD01C0A8958091C6000895E0E648
:107FC000F0E098E1908380830895EDDF803219F02E
:107FD00088E0F5DFFFCF84E1DECF1F93182FE3DFCA
:107FE0001150E9F7F2DF1F91089580E0E8DFEE27F6
:047FF000FF270994CA
:027FFE00040479
:00000001FF
